:020000006D2A67
:10000800FF00030E83018316D3000A08D4008A0177
:100018008B1C12288B1001308312E50083165408BC
:0C0028008A00530E8300FF0E7F0E0900BB
:0C003400000000000000000000000800B8
:0E004000533083120313FD00FD0B242808002B
:10004E00243083120313FC00B530FD00FD0B2D2868
:0A005E00FC0B2D2800000000080034
:10006800FB14FB1F3E28FF30F300F200F100F00004
:08007800FA0DF20CFF30080044
:0E008000F201F101F001F801F3010030080077
:08008E00FA1FF2130030080014
:1000960083160313DB1B52288312881354288312FA
:1000A600881783165B1B5A28831208135C28831251
:1000B60008178316DB1A62288312881264288312B3
:1000C600881683165B1A6A28831208126C28831214
:1000D600081683165018722883120815742883127E
:1000E600081188151A2088118316DB197D288312BA
:1000F60088137F288312881783165B198528831235
:1001060008138728831208178316DB188D28831295
:1001160088128F288312881683165B1895288312F7
:100126000812972883120816831650189D288312E2
:1001360008159F288312081188151A20881183161E
:0C014600501CA7282720A8282020080013
:100152007B15FB1FB3280130F300F201F101F0011E
:08016200FA0DF20CFF30080059
:10016A00831603135A088312930083161418BF28A0
:0C017A000000BA2883121308F0000800EF
:100186008316031350105A08DB004B2083165014B5
:0201960008005F
:0E0198008316031352088A00510882000800E3
:1001A6007C180929FC18DA287C192829D328A001EB
:1001B6007208031DFA287108F2007008F100780829
:1001C600F000F801A0157208031DFA287108F20064
:1001D6007008F100F001A01120167208031DFA281C
:1001E6007108F200F101A015720803191C292008F4
:1001F600F302031D031C20290310F21B0929F80D25
:10020600F00DF10DF20DF30B002920297B1B701C5C
:100216002429F81F2429F00A0319F10A0319F20AFE
:10022600031D2429F20CF10CF00CF30A03192829FA
:1002360024290130FC0040202B290230FC00A92093
:100246002B290430FC0047202B290830FC003420E1
:04025600000008009C
:10025A00831203137008F800FB01FC019E30F300BF
:10026A00FA01F201F101F0010230FC00D32008008A
:10027A0083160313881108110812881208138813A9
:10028A00831288110811881308138812081227206C
:10029A00272027208816081688151A208811272053
:1002AA0088151A208811272088151A2088112720D6
:1002BA00081288151A208811272088151A208811F3
:1002CA008812881788151A2088112720881308167B
:1002DA0088151A208811081288151A2088112720D3
:1002EA0088151A208811081688151A2088112720BF
:1002FA00081288151A2088118817081788160816F0
:0E030A0088151A208811272083165014080029
:100318009E29803083160313D600B129C030D60039
:10032800B1299430D600B129D430D600B129803013
:10033800D600B129831603135608013A03198D29EB
:100348005608023A031992295608033A03199529BF
:100358005608043A031998299B295703F0005608B0
:10036800F0077008D6007008DB004B208316501089
:10037800D90159085807840000080319CB295908DE
:10038800580784000008DA00C320D90ABD29501490
:0203980008005B
:10039A008316031356088312930083161418D72959
:0C03AA000000D22983121308F0000800A4
:1003B60083120313891020308316DA00B5200F301C
:1003C6008316DA00B5208914891021308316DA00E5
:1003D600B52001308316DA00B52089148910223041
:1003E6008316DA00B52001308316DA00B5208914A9
:1003F600891023308316DA00B52003308316DA001D
:10040600B5208914891025308316DA00B52001300D
:100416008316DA00B5208914891026308316DA008F
:10042600B52026308316DA00B520891489102730C6
:100436008316DA00B52070308316DA00B5208914E9
:1004460089102A308316DA00B52078308316DA0050
:10045600B52078308316DA00B52078308316DA00B6
:10046600B52078308316DA00B52078308316DA00A6
:10047600B5208914891031308316DA00B520013091
:100486008316DA00B52089148910E2308316DA0063
:10049600B52089140915D830FD00FD0B502A00003F
:0204A60008004C
:1004A800CC208A110A128000840AD10A0319D20AC0
:0804B800F003031D542A0800A3
:1004C0008316031387128711071683129401403095
:0A04D00083169400831294160800AE
:1004DA00122483160313880107309F0083129F0199
:1004EA00073083169C00891009110614861383129B
:1004FA00891409118316061386120612861101132E
:10050A00D0308B0060220330FB008A30FC0055306B
:10051A00FD00FD0B8E2AFC0B8E2AFB0B8E2A000097
:10052A000000DB213D210C30DB004B20013083161B
:10053A00DB004B2002308316D6000130D700CE30C4
:10054A00D8008C210630FB001330FC00AD30FD00D2
:10055A00FD0BAD2AFC0BAD2AFB0BAD2A00000000F7
:10056A000230D6000130D700CB30D8008C210630BB
:10057A00FB001330FC00AD30FD00FD0BC22AFC0B62
:10058A00C22AFB0BC22A000000000230D60001304A
:10059A00D7006C30D8008C210630FB001330FC00E9
:1005AA00AD30FD00FD0BD72AFC0BD72AFB0BD72A4F
:1005BA00000000000130D6000130D700AE30D8006C
:1005CA008C210230D6000130D700A030D8008C210F
:1005DA001530FB004B30FC00BE30FD00FD0BF32A4A
:1005EA00FC0BF32AFB0BF32A00000130DB004B2043
:1005FA006508013A031D8A2B861709118910613093
:10060A008316D600CD217008EB00FF308316D60082
:10061A00CD2170088316D50055088312EA00891483
:10062A0083165508F0002D217008E6007108E700CE
:10063A007208E8007308E90083165508003A031D9A
:10064A00332B831286120613861106130230831681
:10065A00D6000130D700BA30D8008C2183126A083C
:10066A00013A031D442B861606138611061702301B
:10067A008316D6000130D7003230D8008C2183127D
:10068A006A08023A031D552B8612061786110617A9
:10069A0002308316D6000130D7004330D8008C21AF
:1006AA0083126A08033A031D662B861606138615FB
:1006BA00061302308316D6000130D7005430D80012
:1006CA008C2183126A08043A031D772B86120617B7
:1006DA008615061302308316D6000130D700213062
:1006EA00D8008C218312891027308316DA00B520AE
:1006FA0070308316DA00B52089148910E230831627
:10070A00DA00B5208914E50109158613FD2A8C2B18
:1008240021308400453083120313F0009230831684
:10083400D1000330D2005422A03084001A30F000DA
:10084400D7308316D1000330D2005422663084009E
:100854000630F00002308316D1000430D200542256
:10086400BA3084001130F000F1308316D100033027
:10087400D20054226C3084000430F0000D30831612
:10088400D1000430D2005422CB3084000530F00073
:0E08940008308316D1000430D2005422080030
:100724002D343E342034203445345334513455343C
:100734004534523444344134203420343C342D3450
:0207440000347F
:100746002D343E3420342034203444344934523459
:100756004534493454344134203420343C342D3427
:0207660000345D
:100768002D343E3420342034203446345234453439
:100778004E34543445342034203420343C342D3421
:0207880000343B
:10078A002D343E342034203420342034543452342E
:10079A004134533420342034203420343C342D3432
:0207AA00003419
:0207AC00003417
:1007AE002034203420344D3449344E3448344134CE
:0C07BE00203456344934443441340034B3
:1007CA0020342034203420344D34453455342034F8
:0807DA003134303430340034B6
:1007E2002D343E34203420342034503441345234B9
:1007F200413444344F342034203420343C342D34BA
:020802000034C0
:0808040000340034003400341C
:02080C000034B6
:02080E000034B4
:060810002E342E340034EA
:040816002E34003448
:08081A002E342E342E3400347C
:02400E004A2F37
:00000001FF
