:02000000C02816
:10000800FF00030E8301A4000A08A5008A018B1CC7
:1000180010288B100130A00025088A00240E8300C8
:06002800FF0E7F0E09002F
:10002E008312031327089300831614182028000048
:0A003E001B2883121308F0000800CD
:0E0048008312031323088A0022088200080096
:100056008316031387128711071683129401403003
:0A006600831694008312941608001C
:1000700024208A110A128000840AA20A0319A30A02
:08008000F003031D38280800FD
:10008800831203138910A030A70017202608A700A1
:100098001720891409152130FD00FD0B512809117D
:0200A80008004E
:1000AA008312031389102030A70017200E30A700EF
:1000BA001720891489102130A70017200130A700C2
:1000CA001720891489102230A70017200130A700B1
:1000DA001720891489102330A70017200330A7009E
:1000EA001720891489102430A70017200130A7008F
:1000FA001720891489102530A70017200130A7007E
:10010A001720891489102630A70017202630A70047
:10011A001720891489102730A70017207030A700EC
:10012A001720891489103030A70017207830A700CB
:10013A0017207830A70017207830A70017207830CA
:10014A00A70017207830A7001720891489102A30B1
:10015A00A70017207830A70017207830A7001720AB
:10016A007830A70017207830A70017207830A7002A
:06017A00172089140800A3
:1001800083120313A001073083169C0001308312F1
:100190009F000E3083169F008910091106118312EB
:1001A0000611831606148614831289140911831606
:1001B00086170617861606160810D0308B002B20DF
:1001C0000330FB008A30FC005530FD00FD0BE628B3
:1001D000FC0BE628FB0BE6280000000055201A3037
:1001E000FB005E30FC006E30FD00FD0BF528FC0BC3
:1001F000F528FB0BF5280000A101061E012901309E
:10020000A100861E05290230A100061F092903301E
:10021000A100861F0D290430A100061A1729861A8D
:100220001729061B1729861B1729F00119290130E8
:10023000F00070181D2908101E2908142108A600B6
:1002400044200330FB008A30FC005530FD00FD0BDC
:100250002729FC0B2729FB0B272900000000891008
:10026000E130A7001720891489102730A700172034
:0C0270007030A70017208914EF283D29EA
:02400E004A2F37
:00000001FF
